{
  "contractName": "TweetController",
  "abi": [
    {
      "constant": false,
      "inputs": [
        {
          "name": "_managerAddr",
          "type": "address"
        }
      ],
      "name": "setManagerAddr",
      "outputs": [],
      "payable": false,
      "stateMutability": "nonpayable",
      "type": "function"
    },
    {
      "constant": true,
      "inputs": [],
      "name": "ownerAddr",
      "outputs": [
        {
          "name": "",
          "type": "address"
        }
      ],
      "payable": false,
      "stateMutability": "view",
      "type": "function"
    },
    {
      "constant": false,
      "inputs": [
        {
          "name": "_newOwner",
          "type": "address"
        }
      ],
      "name": "transferOwnership",
      "outputs": [],
      "payable": false,
      "stateMutability": "nonpayable",
      "type": "function"
    },
    {
      "constant": false,
      "inputs": [
        {
          "name": "_text",
          "type": "string"
        }
      ],
      "name": "createTweet",
      "outputs": [
        {
          "name": "",
          "type": "uint256"
        }
      ],
      "payable": false,
      "stateMutability": "nonpayable",
      "type": "function"
    }
  ],
  "bytecode": "0x6060604052336000806101000a81548173ffffffffffffffffffffffffffffffffffffffff021916908373ffffffffffffffffffffffffffffffffffffffff160217905550610705806100536000396000f300606060405260043610610062576000357c0100000000000000000000000000000000000000000000000000000000900463ffffffff1680637978b231146100675780637c9cd2bc146100a05780639c675eaa14610111578063f2fde38b14610166575b600080fd5b341561007257600080fd5b61009e600480803573ffffffffffffffffffffffffffffffffffffffff1690602001909190505061019f565b005b34156100ab57600080fd5b6100fb600480803590602001908201803590602001908080601f0160208091040260200160405190810160405280939291908181526020018383808284378201915050505050509190505061023e565b6040518082815260200191505060405180910390f35b341561011c57600080fd5b6101246105da565b604051808273ffffffffffffffffffffffffffffffffffffffff1673ffffffffffffffffffffffffffffffffffffffff16815260200191505060405180910390f35b341561017157600080fd5b61019d600480803573ffffffffffffffffffffffffffffffffffffffff169060200190919050506105ff565b005b6000809054906101000a900473ffffffffffffffffffffffffffffffffffffffff1673ffffffffffffffffffffffffffffffffffffffff163373ffffffffffffffffffffffffffffffffffffffff161415156101fa57600080fd5b80600160006101000a81548173ffffffffffffffffffffffffffffffffffffffff021916908373ffffffffffffffffffffffffffffffffffffffff16021790555050565b6000806000806000806000600160009054906101000a900473ffffffffffffffffffffffffffffffffffffffff1695508573ffffffffffffffffffffffffffffffffffffffff1663bf40fac16000604051602001526040518163ffffffff167c010000000000000000000000000000000000000000000000000000000002815260040180806020018281038252600b8152602001807f5573657253746f72616765000000000000000000000000000000000000000000815250602001915050602060405180830381600087803b151561031657600080fd5b6102c65a03f1151561032757600080fd5b5050506040518051905094508493508373ffffffffffffffffffffffffffffffffffffffff166382d38954336000604051602001526040518263ffffffff167c0100000000000000000000000000000000000000000000000000000000028152600401808273ffffffffffffffffffffffffffffffffffffffff1673ffffffffffffffffffffffffffffffffffffffff168152602001915050602060405180830381600087803b15156103d957600080fd5b6102c65a03f115156103ea57600080fd5b5050506040518051905092506000831415151561040657600080fd5b8573ffffffffffffffffffffffffffffffffffffffff1663bf40fac16000604051602001526040518163ffffffff167c010000000000000000000000000000000000000000000000000000000002815260040180806020018281038252600c8152602001807f547765657453746f726167650000000000000000000000000000000000000000815250602001915050602060405180830381600087803b15156104ae57600080fd5b6102c65a03f115156104bf57600080fd5b5050506040518051905091508190508073ffffffffffffffffffffffffffffffffffffffff16637cc82f20848a6000604051602001526040518363ffffffff167c01000000000000000000000000000000000000000000000000000000000281526004018083815260200180602001828103825283818151815260200191508051906020019080838360005b8381101561056657808201518184015260208101905061054b565b50505050905090810190601f1680156105935780820380516001836020036101000a031916815260200191505b509350505050602060405180830381600087803b15156105b257600080fd5b6102c65a03f115156105c357600080fd5b505050604051805190509650505050505050919050565b6000809054906101000a900473ffffffffffffffffffffffffffffffffffffffff1681565b6000809054906101000a900473ffffffffffffffffffffffffffffffffffffffff1673ffffffffffffffffffffffffffffffffffffffff163373ffffffffffffffffffffffffffffffffffffffff1614151561065a57600080fd5b600073ffffffffffffffffffffffffffffffffffffffff168173ffffffffffffffffffffffffffffffffffffffff161415151561069657600080fd5b806000806101000a81548173ffffffffffffffffffffffffffffffffffffffff021916908373ffffffffffffffffffffffffffffffffffffffff160217905550505600a165627a7a723058205b944923ea81845c6b582cc0d0b1427fd77c16454f720b9317c4e85b501a6ad00029",
  "source": "// contracts/tweets/TweetController.sol\n\npragma solidity ^0.4.19;\n\nimport '../helpers/BaseController.sol';\nimport '../ContractManager.sol';\nimport './TweetStorage.sol';\nimport \"../users/UserStorage.sol\";\n\ncontract TweetController is BaseController {\n\n  function createTweet(string _text) public returns(uint) {\n    ContractManager _manager = ContractManager(managerAddr);\n\n    address _userStorageAddr = _manager.getAddress(\"UserStorage\");\n    UserStorage _userStorage = UserStorage(_userStorageAddr);\n    uint _userId = _userStorage.addresses(msg.sender);\n\n    require(_userId != 0);\n\n    address _tweetStorageAddr = _manager.getAddress(\"TweetStorage\");\n    TweetStorage _tweetStorage = TweetStorage(_tweetStorageAddr);\n\n    return _tweetStorage.createTweet(_userId, _text);\n  }\n\n}\n",
  "sourcePath": "/Users/tristan/Desktop/tweether/contracts/tweets/TweetController.sol",
  "compiler": {
    "name": "solc",
    "version": "0.4.19+commit.c4cbbb05.Emscripten.clang"
  },
  "schemaVersion": "2.0.0",
  "updatedAt": "2018-03-26T19:48:13.776Z"
}