{
  "contractName": "TweetherICO",
  "abi": [
    {
      "constant": true,
      "inputs": [],
      "name": "RATE",
      "outputs": [
        {
          "name": "",
          "type": "uint256"
        }
      ],
      "payable": false,
      "stateMutability": "view",
      "type": "function"
    },
    {
      "inputs": [
        {
          "name": "_tokenAddr",
          "type": "address"
        }
      ],
      "payable": false,
      "stateMutability": "nonpayable",
      "type": "constructor"
    },
    {
      "payable": true,
      "stateMutability": "payable",
      "type": "fallback"
    }
  ],
  "bytecode": "0x60606040526103e8600155341561001557600080fd5b6040516020806102a383398101604052808051906020019091905050806000806101000a81548173ffffffffffffffffffffffffffffffffffffffff021916908373ffffffffffffffffffffffffffffffffffffffff16021790555050610222806100816000396000f300606060405260043610610041576000357c0100000000000000000000000000000000000000000000000000000000900463ffffffff168063664e970414610139575b600061004c34610162565b90506000809054906101000a900473ffffffffffffffffffffffffffffffffffffffff1673ffffffffffffffffffffffffffffffffffffffff1663a9059cbb33836000604051602001526040518363ffffffff167c0100000000000000000000000000000000000000000000000000000000028152600401808373ffffffffffffffffffffffffffffffffffffffff1673ffffffffffffffffffffffffffffffffffffffff16815260200182815260200192505050602060405180830381600087803b151561011a57600080fd5b6102c65a03f1151561012b57600080fd5b505050604051805190505050005b341561014457600080fd5b61014c61019a565b6040518082815260200191505060405180910390f35b6000610193600154610185670de0b6b3a7640000856101a090919063ffffffff16565b6101bb90919063ffffffff16565b9050919050565b60015481565b60008082848115156101ae57fe5b0490508091505092915050565b60008060008414156101d057600091506101ef565b82840290508284828115156101e157fe5b041415156101eb57fe5b8091505b50929150505600a165627a7a72305820e78f3c1a02cd7858ed6d021fd2961fff435635b1b459c12b1a85a1fc6c85635d0029",
  "source": "// contracts/token/TweetherICO.sol\n\npragma solidity ^0.4.19;\n\nimport \"zeppelin-solidity/contracts/math/SafeMath.sol\";\nimport \"./TweetherToken.sol\";\n\ncontract TweetherICO {\n  using SafeMath for uint256;\n\n  TweetherToken token;\n\n  uint256 public RATE = 1000; // 1 ETH = 1000 TWE\n\n  function TweetherICO(address _tokenAddr) public {\n    token = TweetherToken(_tokenAddr);  \n  }\n\n  function () public payable {\n    uint256 _amount = _getTokenAmount(msg.value);\n\n    token.transfer(msg.sender, _amount);\n  }\n\n  function _getTokenAmount(uint256 _weiAmount) internal view returns (uint256) {\n    return _weiAmount.div(10 ** 18).mul(RATE);\n  }\n\n}\n",
  "sourcePath": "/Users/tristan/Desktop/tweether/contracts/token/TweetherICO.sol",
  "compiler": {
    "name": "solc",
    "version": "0.4.19+commit.c4cbbb05.Emscripten.clang"
  },
  "schemaVersion": "2.0.0",
  "updatedAt": "2018-03-27T05:37:41.406Z"
}