{
  "contractName": "UserStorage",
  "abi": [
    {
      "constant": false,
      "inputs": [
        {
          "name": "_controllerAddr",
          "type": "address"
        }
      ],
      "name": "setControllerAddr",
      "outputs": [],
      "payable": false,
      "stateMutability": "nonpayable",
      "type": "function"
    },
    {
      "constant": true,
      "inputs": [
        {
          "name": "",
          "type": "address"
        }
      ],
      "name": "addresses",
      "outputs": [
        {
          "name": "",
          "type": "uint256"
        }
      ],
      "payable": false,
      "stateMutability": "view",
      "type": "function"
    },
    {
      "constant": true,
      "inputs": [],
      "name": "ownerAddr",
      "outputs": [
        {
          "name": "",
          "type": "address"
        }
      ],
      "payable": false,
      "stateMutability": "view",
      "type": "function"
    },
    {
      "constant": true,
      "inputs": [
        {
          "name": "",
          "type": "uint256"
        }
      ],
      "name": "profiles",
      "outputs": [
        {
          "name": "id",
          "type": "uint256"
        },
        {
          "name": "username",
          "type": "bytes32"
        },
        {
          "name": "firstName",
          "type": "bytes32"
        },
        {
          "name": "lastName",
          "type": "bytes32"
        },
        {
          "name": "bio",
          "type": "string"
        },
        {
          "name": "gravatarEmail",
          "type": "string"
        }
      ],
      "payable": false,
      "stateMutability": "view",
      "type": "function"
    },
    {
      "constant": true,
      "inputs": [
        {
          "name": "",
          "type": "bytes32"
        }
      ],
      "name": "usernames",
      "outputs": [
        {
          "name": "",
          "type": "uint256"
        }
      ],
      "payable": false,
      "stateMutability": "view",
      "type": "function"
    },
    {
      "constant": true,
      "inputs": [],
      "name": "controllerAddr",
      "outputs": [
        {
          "name": "",
          "type": "address"
        }
      ],
      "payable": false,
      "stateMutability": "view",
      "type": "function"
    },
    {
      "constant": false,
      "inputs": [
        {
          "name": "_newOwner",
          "type": "address"
        }
      ],
      "name": "transferOwnership",
      "outputs": [],
      "payable": false,
      "stateMutability": "nonpayable",
      "type": "function"
    },
    {
      "constant": false,
      "inputs": [
        {
          "name": "_address",
          "type": "address"
        },
        {
          "name": "_username",
          "type": "bytes32"
        },
        {
          "name": "_firstName",
          "type": "bytes32"
        },
        {
          "name": "_lastName",
          "type": "bytes32"
        },
        {
          "name": "_bio",
          "type": "string"
        },
        {
          "name": "_gravatarEmail",
          "type": "string"
        }
      ],
      "name": "createUser",
      "outputs": [
        {
          "name": "_newUserId",
          "type": "uint256"
        }
      ],
      "payable": false,
      "stateMutability": "nonpayable",
      "type": "function"
    }
  ],
  "bytecode": "0x60606040526000600555336000806101000a81548173ffffffffffffffffffffffffffffffffffffffff021916908373ffffffffffffffffffffffffffffffffffffffff160217905550610955806100586000396000f30060606040526004361061008e576000357c0100000000000000000000000000000000000000000000000000000000900463ffffffff1680636981fa7d1461009357806382d38954146100cc5780639c675eaa14610119578063c36fe3d61461016e578063d399e63d146102e4578063ec4d88d7146103de578063ee255c5714610419578063f2fde38b1461046e575b600080fd5b341561009e57600080fd5b6100ca600480803573ffffffffffffffffffffffffffffffffffffffff169060200190919050506104a7565b005b34156100d757600080fd5b610103600480803573ffffffffffffffffffffffffffffffffffffffff16906020019091905050610546565b6040518082815260200191505060405180910390f35b341561012457600080fd5b61012c61055e565b604051808273ffffffffffffffffffffffffffffffffffffffff1673ffffffffffffffffffffffffffffffffffffffff16815260200191505060405180910390f35b341561017957600080fd5b61018f6004808035906020019091905050610583565b60405180878152602001866000191660001916815260200185600019166000191681526020018460001916600019168152602001806020018060200183810383528581815460018160011615610100020316600290048152602001915080546001816001161561010002031660029004801561024c5780601f106102215761010080835404028352916020019161024c565b820191906000526020600020905b81548152906001019060200180831161022f57829003601f168201915b50508381038252848181546001816001161561010002031660029004815260200191508054600181600116156101000203166002900480156102cf5780601f106102a4576101008083540402835291602001916102cf565b820191906000526020600020905b8154815290600101906020018083116102b257829003601f168201915b50509850505050505050505060405180910390f35b34156102ef57600080fd5b6103c8600480803573ffffffffffffffffffffffffffffffffffffffff1690602001909190803560001916906020019091908035600019169060200190919080356000191690602001909190803590602001908201803590602001908080601f0160208091040260200160405190810160405280939291908181526020018383808284378201915050505050509190803590602001908201803590602001908080601f016020809104026020016040519081016040528093929190818152602001838380828437820191505050505050919050506105bd565b6040518082815260200191505060405180910390f35b34156103e957600080fd5b61040360048080356000191690602001909190505061076c565b6040518082815260200191505060405180910390f35b341561042457600080fd5b61042c610784565b604051808273ffffffffffffffffffffffffffffffffffffffff1673ffffffffffffffffffffffffffffffffffffffff16815260200191505060405180910390f35b341561047957600080fd5b6104a5600480803573ffffffffffffffffffffffffffffffffffffffff169060200190919050506107aa565b005b6000809054906101000a900473ffffffffffffffffffffffffffffffffffffffff1673ffffffffffffffffffffffffffffffffffffffff163373ffffffffffffffffffffffffffffffffffffffff1614151561050257600080fd5b80600160006101000a81548173ffffffffffffffffffffffffffffffffffffffff021916908373ffffffffffffffffffffffffffffffffffffffff16021790555050565b60036020528060005260406000206000915090505481565b6000809054906101000a900473ffffffffffffffffffffffffffffffffffffffff1681565b6002602052806000526040600020600091509050806000015490806001015490806002015490806003015490806004019080600501905086565b6000600160009054906101000a900473ffffffffffffffffffffffffffffffffffffffff1673ffffffffffffffffffffffffffffffffffffffff163373ffffffffffffffffffffffffffffffffffffffff1614151561061b57600080fd5b60056000815480929190600101919050555060c0604051908101604052806005548152602001876000191681526020018660001916815260200185600019168152602001848152602001838152506002600060055481526020019081526020016000206000820151816000015560208201518160010190600019169055604082015181600201906000191690556060820151816003019060001916905560808201518160040190805190602001906106d4929190610884565b5060a08201518160050190805190602001906106f1929190610884565b50905050600554600360008973ffffffffffffffffffffffffffffffffffffffff1673ffffffffffffffffffffffffffffffffffffffff168152602001908152602001600020819055506005546004600088600019166000191681526020019081526020016000208190555060055490509695505050505050565b60046020528060005260406000206000915090505481565b600160009054906101000a900473ffffffffffffffffffffffffffffffffffffffff1681565b6000809054906101000a900473ffffffffffffffffffffffffffffffffffffffff1673ffffffffffffffffffffffffffffffffffffffff163373ffffffffffffffffffffffffffffffffffffffff1614151561080557600080fd5b600073ffffffffffffffffffffffffffffffffffffffff168173ffffffffffffffffffffffffffffffffffffffff161415151561084157600080fd5b806000806101000a81548173ffffffffffffffffffffffffffffffffffffffff021916908373ffffffffffffffffffffffffffffffffffffffff16021790555050565b828054600181600116156101000203166002900490600052602060002090601f016020900481019282601f106108c557805160ff19168380011785556108f3565b828001600101855582156108f3579182015b828111156108f25782518255916020019190600101906108d7565b5b5090506109009190610904565b5090565b61092691905b8082111561092257600081600090555060010161090a565b5090565b905600a165627a7a72305820984987cb0963ab314140f0b8654114396e0c95d3f7f331ee3371199c727fd1220029",
  "source": "// contracts/users/UserStorage.sol\n\npragma solidity ^0.4.19;\n\nimport '../helpers/BaseStorage.sol';\n\ncontract UserStorage is BaseStorage {\n\n  mapping(uint => Profile) public profiles;\n  mapping (address => uint) public addresses;\n  mapping (bytes32 => uint) public usernames; \n\n  struct Profile {\n    uint id;\n    bytes32 username;\n    bytes32 firstName;\n    bytes32 lastName;\n    string bio;\n    string gravatarEmail;\n  }\n\n  uint latestUserId = 0;\n  \n  function createUser(\n    address _address,\n    bytes32 _username,\n    bytes32 _firstName,\n    bytes32 _lastName,\n    string _bio,\n    string _gravatarEmail\n  ) public onlyController returns(uint _newUserId) {\n    latestUserId++;  \n\n    profiles[latestUserId] = Profile(\n      latestUserId, \n      _username,\n      _firstName,\n      _lastName,\n      _bio,\n      _gravatarEmail\n    );\n\n    addresses[_address] = latestUserId;\n    usernames[_username] = latestUserId;\n\n    return latestUserId;\n  }\n\n}\n",
  "sourcePath": "/Users/tristan/Desktop/tweether/contracts/users/UserStorage.sol",
  "compiler": {
    "name": "solc",
    "version": "0.4.19+commit.c4cbbb05.Emscripten.clang"
  },
  "schemaVersion": "2.0.0",
  "updatedAt": "2018-03-27T09:25:09.486Z"
}